:03F0000002F00813
:03F0610002F003B7
:05F0030012F13A80FE4D
:03F0640053BEFB9D
:08F06700E5BE30E6FB53C6B81C
:0EF06F00E5C620E6FB43BE0490DF0C7486F07D
:0DF07D0090DF0D7483F090DF0E7430F09082
:0EF08A00DF0F7422F090DF1074F8F090DF00BA
:0AF0980074AAF090DF0174AAF022C0
:04F0A200AA82AB8310
:05F0A6001ABAFF011B76
:0EF0AB00C3E49A74808BF063F08095F0500FF0
:04F0B9007CB07D04A6
:05F0BD001CBCFF011D59
:06F0C200EC4D70F780DE4A
:01F0C8002225
:05F0C900C2A875E1047E
:0EF0CE0090DF3BE0FABA01F890000A12F0A2BF
:03F0DC0075E102D9
:0DF0DF0090DF3BE0FABA0DF890DF02E09000
:07F0EC00FE00F07A017B0039
:0EF0F30090DF02E0FC7D00C3EA9CEB64808DA0
:09F10100F063F08095F04001225A
:0AF10A0090DF3BE0FCBC0D02800129
:01F1140022D8
:0BF1150090DF3BE0FCBC0D033089F5EF
:0CF12000C289A58A048B050ABA00010B05
:0EF12C008C8274FE2DF583E5D9FCF002F0F321
:06F13A0090FE00E0C2A8F7
:0BF140009000C812F0A212F0C9A50256
:02F14B00F14091
:06F03700E478FFF6D8FDAD
:08F015007900E94400601B7A58
:05F01D000090F15178A4
:03F02200007593E3
:0AF0250000E493F2A308B80002050E
:08F02F0093D9F4DAF27593FFA6
:08F03D007800E84400600A7944
:03F04500007593C0
:06F0480000E4F309D8FC0E
:08F04E007800E84400600C7931
:0BF0560000900000E4F0A3D8FCD9FA01
:03F0080075810708
:0AF00B0012F14DE582600302F003EC
:04F14D0075820022A5
:00000001FF
