:03F0000002F00813
:03F0610002F003B7
:05F0030012F0BD80FECB
:03F0640053BEFB9D
:08F06700E5BE30E6FB53C6B81C
:0EF06F00E5C620E6FB43BE0490DF0C7486F07D
:0DF07D0090DF0D7483F090DF0E7430F09082
:0CF08A00DF0F7422F090DF1074F8F02209
:04F09600AA82AB831C
:05F09A001ABAFF011B82
:0EF09F00C3E49A74808BF063F08095F0500FFC
:04F0AD007CB07D04B2
:05F0B1001CBCFF011D65
:06F0B600EC4D70F780DE56
:01F0BC002231
:09F0BD0090FE00E0C2A875E10418
:08F0C60090DF3BE0FABA01F80B
:03F0CE0075E100E9
:0EF0D10090DF3BE0FABA12F890000512F096BC
:06F0DF0012F10575E100CD
:0EF0E50090DF3BE0FABA12F812F06475E10415
:03F0F30075E103C1
:0DF0F60090DF3BE0FA53021FBA13F5A502AC
:02F10300F0CE4C
:04F105007A107B0001
:03F10900BB400008
:0DF10C00500B8B827583FE74FFF00B80F0BA
:05F11900C2A875E1042D
:0BF11E0090DF3BE0FBBB01F875E10255
:0EF1290090DF3BE0FBBB0DF890DF04E0FB3015
:04F13700E0387B0041
:0EF13B008A047D0074032CFCE43DFD8B067FEE
:0EF1490000C3EE9CEF64808DF063F08095F0C3
:02F15700503F27
:05F1590010890280FB9B
:0DF15E008B040B8C827583FEE5D9FCF090CC
:06F16B00FE00E0FA80CA7C
:0AF1710090DF02E090FE00F07A014A
:0AF17B0090DF02E0FBC3EA9B501393
:05F1850010890280FB6F
:0EF18A008A030A8B827583FEE5D9FBF080E3D1
:04F1980075E10422F7
:06F03700E478FFF6D8FDAD
:08F015007900E94400601B7A58
:05F01D000090F1A07855
:03F02200007593E3
:0AF0250000E493F2A308B80002050E
:08F02F0093D9F4DAF27593FFA6
:08F03D007800E84400600A7944
:03F04500007593C0
:06F0480000E4F309D8FC0E
:08F04E007800E84400600C7931
:0BF0560000900000E4F0A3D8FCD9FA01
:03F0080075810708
:0AF00B0012F19CE582600302F0039D
:04F19C007582002256
:00000001FF
