:03F0000002F00813
:03F0610002F003B7
:05F0030012F06480FE24
:04F064007A107B00A3
:03F06800BB4000AA
:0DF06B00500B8B827583FE74FFF00B80F05C
:05F07800C2A875E104CF
:0BF07D0090DF3BE0FBBB01F875E102F7
:0EF0880090DF3BE0FBBB0DF890DF04E0FB30B7
:04F09600E0387B00E3
:0EF09A008A047D0074032CFCE43DFD8B067F90
:0EF0A80000C3EE9CEF64808DF063F08095F065
:02F0B6005040C8
:05F0B80010890280FB3D
:0DF0BD008B040B8C827583FEE5D9FCF0906E
:06F0CA00FE00E0FA80CA1E
:0AF0D00090DF02E090FE00F07A01EC
:09F0DA0090DF02E0FBEAB503003F
:02F0E3005013C8
:05F0E50010890280FB10
:0EF0EA008A030A8B827583FEE5D9FBF080E273
:05F0F80075E104A522F2
:06F03700E478FFF6D8FDAD
:08F015007900E94400601B7A58
:05F01D000090F10178F4
:03F02200007593E3
:0AF0250000E493F2A308B80002050E
:08F02F0093D9F4DAF27593FFA6
:08F03D007800E84400600A7944
:03F04500007593C0
:06F0480000E4F309D8FC0E
:08F04E007800E84400600C7931
:0BF0560000900000E4F0A3D8FCD9FA01
:03F0080075810708
:0AF00B0012F0FDE582600302F0033D
:04F0FD0075820022F6
:00000001FF
